:0400000077EF08F09E
:1010000000009DEC08F0030E206E1F6825C021F043
:101010003BEC08F0030E206E1F68260E216E5DEC7F
:1010200008F01A0E246E5E0E236E6E0EE82EFED7AA
:10103000232EFCD7242EFAD700D0030E206E1F6873
:10104000252A25C021F03BEC08F0030E206E1F6816
:10105000260E216E5DEC08F0140E2518D8A433EF8F
:1010600008F035EF08F011EF08F0000E256E11EFD3
:1010700008F000EF00F0000EF2BE010E226E2050CC
:10108000030BAA6E1FC0A9FF21C0A8FFA69EA69CA5
:10109000A684F29E550EA76EAA0EA76EA682A6B2D1
:1010A00054EF08F056EF08F04FEF08F0A69422B086
:1010B00002D0F29E01D0F28E12002150D8A463EF2C
:1010C00008F065EF08F067EF08F076EF08F02050C1
:1010D000030BAA6E1FC0A9FFA69EA69CA6800000B7
:1010E00000002150D96EDA6AA8CFDFFF12001C0E73
:1010F000F66E110EF76E000EF86E00EE01F010EEB7
:101100001EF00900F5CFEEFFE550E150FAE1266A46
:10111000256A000EF86E000101EF08F0890F8A0FB2
:101120008B0F8C0F8D0F800F810F820F830F840F19
:0C113000920F930F940F950F960F120072
:00000001FF
